{
  "contractName": "QuestManager",
  "abi": [
    {
      "constant": true,
      "inputs": [],
      "name": "questId",
      "outputs": [
        {
          "name": "",
          "type": "uint256"
        }
      ],
      "payable": false,
      "stateMutability": "view",
      "type": "function",
      "signature": "0x44a22c36"
    },
    {
      "constant": true,
      "inputs": [
        {
          "name": "",
          "type": "uint256"
        }
      ],
      "name": "QUESTS",
      "outputs": [
        {
          "name": "id",
          "type": "uint256"
        },
        {
          "name": "prizeTokenAddress",
          "type": "address"
        },
        {
          "name": "prizeTokenId",
          "type": "uint256"
        },
        {
          "name": "prizeTokenAmount",
          "type": "uint256"
        },
        {
          "name": "prizeIsNFT",
          "type": "bool"
        },
        {
          "name": "creator",
          "type": "address"
        }
      ],
      "payable": false,
      "stateMutability": "view",
      "type": "function",
      "signature": "0x4de637cc"
    },
    {
      "constant": true,
      "inputs": [
        {
          "name": "",
          "type": "uint256"
        }
      ],
      "name": "ids",
      "outputs": [
        {
          "name": "",
          "type": "uint256"
        }
      ],
      "payable": false,
      "stateMutability": "view",
      "type": "function",
      "signature": "0xfac333ac"
    },
    {
      "inputs": [],
      "payable": false,
      "stateMutability": "nonpayable",
      "type": "constructor",
      "signature": "constructor"
    },
    {
      "anonymous": false,
      "inputs": [
        {
          "indexed": true,
          "name": "_questId",
          "type": "uint256"
        },
        {
          "indexed": true,
          "name": "_creator",
          "type": "address"
        }
      ],
      "name": "QuestCreated",
      "type": "event",
      "signature": "0x265711dffb2100716e957f1a6a8f230bd41e3c50d54f861eda7ba55f1ccc3cc2"
    },
    {
      "anonymous": false,
      "inputs": [
        {
          "indexed": true,
          "name": "_questId",
          "type": "uint256"
        },
        {
          "indexed": true,
          "name": "_completer",
          "type": "address"
        }
      ],
      "name": "QuestCompleted",
      "type": "event",
      "signature": "0x1f830b1eb1d06c99fa9684f55e907da9251648000c05474005094c53869dbf60"
    },
    {
      "anonymous": false,
      "inputs": [
        {
          "indexed": true,
          "name": "_questId",
          "type": "uint256"
        },
        {
          "indexed": false,
          "name": "_open",
          "type": "bool"
        }
      ],
      "name": "toggleQuestOpem",
      "type": "event",
      "signature": "0x6308042b38639e720c03740e9a3c5ed447243f3f9a684b96c44eb3f62f7d43ca"
    },
    {
      "constant": true,
      "inputs": [],
      "name": "getId",
      "outputs": [
        {
          "name": "",
          "type": "uint256"
        }
      ],
      "payable": false,
      "stateMutability": "view",
      "type": "function",
      "signature": "0x5d1ca631"
    },
    {
      "constant": false,
      "inputs": [
        {
          "name": "_prizeTokenAddress",
          "type": "address"
        },
        {
          "name": "_prizeTokenId",
          "type": "uint256"
        },
        {
          "name": "_prizeTokenAmount",
          "type": "uint256"
        },
        {
          "name": "_prizeIsNFT",
          "type": "bool"
        },
        {
          "name": "_requirementsList",
          "type": "address[]"
        }
      ],
      "name": "createQuest",
      "outputs": [
        {
          "name": "",
          "type": "uint256"
        }
      ],
      "payable": false,
      "stateMutability": "nonpayable",
      "type": "function",
      "signature": "0x5014fcd4"
    },
    {
      "constant": false,
      "inputs": [
        {
          "name": "_questId",
          "type": "uint256"
        }
      ],
      "name": "cancelQuest",
      "outputs": [],
      "payable": false,
      "stateMutability": "nonpayable",
      "type": "function",
      "signature": "0xfe90ff7d"
    },
    {
      "constant": false,
      "inputs": [
        {
          "name": "_tokenAddress",
          "type": "address"
        }
      ],
      "name": "checkRequiremnetLockup",
      "outputs": [
        {
          "name": "",
          "type": "uint256"
        }
      ],
      "payable": false,
      "stateMutability": "nonpayable",
      "type": "function",
      "signature": "0x0a028476"
    },
    {
      "constant": false,
      "inputs": [
        {
          "name": "_questId",
          "type": "uint256"
        },
        {
          "name": "_submittedTokenIds",
          "type": "uint256[]"
        }
      ],
      "name": "completeQuest",
      "outputs": [],
      "payable": false,
      "stateMutability": "nonpayable",
      "type": "function",
      "signature": "0x870de6bd"
    }
  ],
  "bytecode": "0x60806040526000805534801561001457600080fd5b50612304806100246000396000f3fe60806040526004361061008e576000357c0100000000000000000000000000000000000000000000000000000000900463ffffffff1680630a0284761461009357806344a22c36146100f85780634de637cc146101235780635014fcd4146101f15780635d1ca6311461030a578063870de6bd14610335578063fac333ac14610404578063fe90ff7d14610453575b600080fd5b34801561009f57600080fd5b506100e2600480360360208110156100b657600080fd5b81019080803573ffffffffffffffffffffffffffffffffffffffff16906020019092919050505061048e565b6040518082815260200191505060405180910390f35b34801561010457600080fd5b5061010d610576565b6040518082815260200191505060405180910390f35b34801561012f57600080fd5b5061015c6004803603602081101561014657600080fd5b810190808035906020019092919050505061057c565b604051808781526020018673ffffffffffffffffffffffffffffffffffffffff1673ffffffffffffffffffffffffffffffffffffffff168152602001858152602001848152602001831515151581526020018273ffffffffffffffffffffffffffffffffffffffff1673ffffffffffffffffffffffffffffffffffffffff168152602001965050505050505060405180910390f35b3480156101fd57600080fd5b506102f4600480360360a081101561021457600080fd5b81019080803573ffffffffffffffffffffffffffffffffffffffff16906020019092919080359060200190929190803590602001909291908035151590602001909291908035906020019064010000000081111561027157600080fd5b82018360208201111561028357600080fd5b803590602001918460208302840111640100000000831117156102a557600080fd5b919080806020026020016040519081016040528093929190818152602001838360200280828437600081840152601f19601f820116905080830192505050505050509192919290505050610605565b6040518082815260200191505060405180910390f35b34801561031657600080fd5b5061031f611146565b6040518082815260200191505060405180910390f35b34801561034157600080fd5b506104026004803603604081101561035857600080fd5b81019080803590602001909291908035906020019064010000000081111561037f57600080fd5b82018360208201111561039157600080fd5b803590602001918460208302840111640100000000831117156103b357600080fd5b919080806020026020016040519081016040528093929190818152602001838360200280828437600081840152601f19601f82011690508083019250505050505050919291929050505061114f565b005b34801561041057600080fd5b5061043d6004803603602081101561042757600080fd5b8101908080359060200190929190505050611c48565b6040518082815260200191505060405180910390f35b34801561045f57600080fd5b5061048c6004803603602081101561047657600080fd5b8101908080359060200190929190505050611c6b565b005b60008082905060008173ffffffffffffffffffffffffffffffffffffffff166370a08231336040518263ffffffff167c0100000000000000000000000000000000000000000000000000000000028152600401808273ffffffffffffffffffffffffffffffffffffffff1673ffffffffffffffffffffffffffffffffffffffff16815260200191505060206040518083038186803b15801561052f57600080fd5b505afa158015610543573d6000803e3d6000fd5b505050506040513d602081101561055957600080fd5b810190808051906020019092919050505090508092505050919050565b60005481565b60026020528060005260406000206000915090508060000154908060010160009054906101000a900473ffffffffffffffffffffffffffffffffffffffff16908060020154908060030154908060040160009054906101000a900460ff16908060040160019054906101000a900473ffffffffffffffffffffffffffffffffffffffff16905086565b60008215610a3957600184141515610685576040517f08c379a000000000000000000000000000000000000000000000000000000000815260040180806020018281038252601e8152602001807f7072697a6520616d6f756e7420666f72204e4654206d7573742062652031000081525060200191505060405180910390fd5b60008690503373ffffffffffffffffffffffffffffffffffffffff168173ffffffffffffffffffffffffffffffffffffffff16636352211e886040518263ffffffff167c01000000000000000000000000000000000000000000000000000000000281526004018082815260200191505060206040518083038186803b15801561070e57600080fd5b505afa158015610722573d6000803e3d6000fd5b505050506040513d602081101561073857600080fd5b810190808051906020019092919050505073ffffffffffffffffffffffffffffffffffffffff161415156107d4576040517f08c379a00000000000000000000000000000000000000000000000000000000081526004018080602001828103825260208152602001807f71756573742063726561746f7220646f6573206e6f74206f776e207072697a6581525060200191505060405180910390fd5b3073ffffffffffffffffffffffffffffffffffffffff168173ffffffffffffffffffffffffffffffffffffffff1663081812fc886040518263ffffffff167c01000000000000000000000000000000000000000000000000000000000281526004018082815260200191505060206040518083038186803b15801561085857600080fd5b505afa15801561086c573d6000803e3d6000fd5b505050506040513d602081101561088257600080fd5b810190808051906020019092919050505073ffffffffffffffffffffffffffffffffffffffff16141515610944576040517f08c379a00000000000000000000000000000000000000000000000000000000081526004018080602001828103825260258152602001807f63726561746f7220686173206e6f7420676976656e2061636365737320746f2081526020017f7072697a6500000000000000000000000000000000000000000000000000000081525060400191505060405180910390fd5b8073ffffffffffffffffffffffffffffffffffffffff166323b872dd3330896040518463ffffffff167c0100000000000000000000000000000000000000000000000000000000028152600401808473ffffffffffffffffffffffffffffffffffffffff1673ffffffffffffffffffffffffffffffffffffffff1681526020018373ffffffffffffffffffffffffffffffffffffffff1673ffffffffffffffffffffffffffffffffffffffff1681526020018281526020019350505050600060405180830381600087803b158015610a1b57600080fd5b505af1158015610a2f573d6000803e3d6000fd5b5050505050610f0d565b600084111515610ad7576040517f08c379a00000000000000000000000000000000000000000000000000000000081526004018080602001828103825260238152602001807f7072697a6520616d6f756e74206d75737420626520677265617465722074686181526020017f6e2030000000000000000000000000000000000000000000000000000000000081525060400191505060405180910390fd5b6000869050848173ffffffffffffffffffffffffffffffffffffffff166370a08231336040518263ffffffff167c0100000000000000000000000000000000000000000000000000000000028152600401808273ffffffffffffffffffffffffffffffffffffffff1673ffffffffffffffffffffffffffffffffffffffff16815260200191505060206040518083038186803b158015610b7657600080fd5b505afa158015610b8a573d6000803e3d6000fd5b505050506040513d6020811015610ba057600080fd5b810190808051906020019092919050505010151515610c4d576040517f08c379a00000000000000000000000000000000000000000000000000000000081526004018080602001828103825260308152602001807f71756573742063726561746f7220646f6573206e6f74206f776e20656e6f756781526020017f68206f66207072697a6520746f6b656e0000000000000000000000000000000081525060400191505060405180910390fd5b60008173ffffffffffffffffffffffffffffffffffffffff1663dd62ed3e33306040518363ffffffff167c0100000000000000000000000000000000000000000000000000000000028152600401808373ffffffffffffffffffffffffffffffffffffffff1673ffffffffffffffffffffffffffffffffffffffff1681526020018273ffffffffffffffffffffffffffffffffffffffff1673ffffffffffffffffffffffffffffffffffffffff1681526020019250505060206040518083038186803b158015610d1c57600080fd5b505afa158015610d30573d6000803e3d6000fd5b505050506040513d6020811015610d4657600080fd5b81019080805190602001909291905050509050858110151515610df7576040517f08c379a00000000000000000000000000000000000000000000000000000000081526004018080602001828103825260288152602001807f63726561746f7220686173206e6f7420616c6c6f77656420757320656e6f756781526020017f6820746f6b656e7300000000000000000000000000000000000000000000000081525060400191505060405180910390fd5b8173ffffffffffffffffffffffffffffffffffffffff166323b872dd3330896040518463ffffffff167c0100000000000000000000000000000000000000000000000000000000028152600401808473ffffffffffffffffffffffffffffffffffffffff1673ffffffffffffffffffffffffffffffffffffffff1681526020018373ffffffffffffffffffffffffffffffffffffffff1673ffffffffffffffffffffffffffffffffffffffff1681526020018281526020019350505050602060405180830381600087803b158015610ece57600080fd5b505af1158015610ee2573d6000803e3d6000fd5b505050506040513d6020811015610ef857600080fd5b81019080805190602001909291905050505050505b6000808154809291906001019190505550610f2661219f565b60e06040519081016040528060005481526020018873ffffffffffffffffffffffffffffffffffffffff16815260200187815260200186815260200185151581526020013373ffffffffffffffffffffffffffffffffffffffff1681526020018481525090508060026000836000015181526020019081526020016000206000820151816000015560208201518160010160006101000a81548173ffffffffffffffffffffffffffffffffffffffff021916908373ffffffffffffffffffffffffffffffffffffffff160217905550604082015181600201556060820151816003015560808201518160040160006101000a81548160ff02191690831515021790555060a08201518160040160016101000a81548173ffffffffffffffffffffffffffffffffffffffff021916908373ffffffffffffffffffffffffffffffffffffffff16021790555060c082015181600501908051906020019061108c92919061220b565b509050506001600360008360000151815260200190815260200160002060006101000a81548160ff0219169083151502179055506001816000015190806001815401808255809150509060018203906000526020600020016000909192909190915055508060a0015173ffffffffffffffffffffffffffffffffffffffff1681600001517f265711dffb2100716e957f1a6a8f230bd41e3c50d54f861eda7ba55f1ccc3cc260405160405180910390a35095945050505050565b60008054905090565b6003600083815260200190815260200160002060009054906101000a900460ff1615156111e4576040517f08c379a00000000000000000000000000000000000000000000000000000000081526004018080602001828103825260138152602001807f717565737420646f6573206e6f2065786973740000000000000000000000000081525060200191505060405180910390fd5b6111ec61219f565b6002600084815260200190815260200160002060e06040519081016040529081600082015481526020016001820160009054906101000a900473ffffffffffffffffffffffffffffffffffffffff1673ffffffffffffffffffffffffffffffffffffffff1673ffffffffffffffffffffffffffffffffffffffff16815260200160028201548152602001600382015481526020016004820160009054906101000a900460ff161515151581526020016004820160019054906101000a900473ffffffffffffffffffffffffffffffffffffffff1673ffffffffffffffffffffffffffffffffffffffff1673ffffffffffffffffffffffffffffffffffffffff1681526020016005820180548060200260200160405190810160405280929190818152602001828054801561137557602002820191906000526020600020905b8160009054906101000a900473ffffffffffffffffffffffffffffffffffffffff1673ffffffffffffffffffffffffffffffffffffffff168152602001906001019080831161132b575b50505050508152505090508060c00151518251141515611423576040517f08c379a00000000000000000000000000000000000000000000000000000000081526004018080602001828103825260408152602001807f616d6f756e74206f66207375626d697474656420746f6b656e7320646f65732081526020017f6e6f74206d61746368206c656e676874206f66207265717569726d656e65747381525060400191505060405180910390fd5b60008090505b8160c00151518110156117785760008260c001518281518110151561144a57fe5b90602001906020020151905060008190503373ffffffffffffffffffffffffffffffffffffffff168173ffffffffffffffffffffffffffffffffffffffff16636352211e878681518110151561149c57fe5b906020019060200201516040518263ffffffff167c01000000000000000000000000000000000000000000000000000000000281526004018082815260200191505060206040518083038186803b1580156114f657600080fd5b505afa15801561150a573d6000803e3d6000fd5b505050506040513d602081101561152057600080fd5b810190808051906020019092919050505073ffffffffffffffffffffffffffffffffffffffff161415156115e2576040517f08c379a00000000000000000000000000000000000000000000000000000000081526004018080602001828103825260218152602001807f7375626d697474657220646f65736e2774206f776e20726571756972656d656e81526020017f740000000000000000000000000000000000000000000000000000000000000081525060400191505060405180910390fd5b3073ffffffffffffffffffffffffffffffffffffffff168173ffffffffffffffffffffffffffffffffffffffff1663081812fc878681518110151561162357fe5b906020019060200201516040518263ffffffff167c01000000000000000000000000000000000000000000000000000000000281526004018082815260200191505060206040518083038186803b15801561167d57600080fd5b505afa158015611691573d6000803e3d6000fd5b505050506040513d60208110156116a757600080fd5b810190808051906020019092919050505073ffffffffffffffffffffffffffffffffffffffff16141515611769576040517f08c379a00000000000000000000000000000000000000000000000000000000081526004018080602001828103825260258152602001807f7573657220686173206e6f7420676976656e207573207472616e73666572207281526020017f696768747300000000000000000000000000000000000000000000000000000081525060400191505060405180910390fd5b50508080600101915050611429565b508060800151156119d3576000816020015190508073ffffffffffffffffffffffffffffffffffffffff166323b872dd303385604001516040518463ffffffff167c0100000000000000000000000000000000000000000000000000000000028152600401808473ffffffffffffffffffffffffffffffffffffffff1673ffffffffffffffffffffffffffffffffffffffff1681526020018373ffffffffffffffffffffffffffffffffffffffff1673ffffffffffffffffffffffffffffffffffffffff1681526020018281526020019350505050600060405180830381600087803b15801561186757600080fd5b505af115801561187b573d6000803e3d6000fd5b505050503373ffffffffffffffffffffffffffffffffffffffff168173ffffffffffffffffffffffffffffffffffffffff16636352211e84604001516040518263ffffffff167c01000000000000000000000000000000000000000000000000000000000281526004018082815260200191505060206040518083038186803b15801561190757600080fd5b505afa15801561191b573d6000803e3d6000fd5b505050506040513d602081101561193157600080fd5b810190808051906020019092919050505073ffffffffffffffffffffffffffffffffffffffff161415156119cd576040517f08c379a00000000000000000000000000000000000000000000000000000000081526004018080602001828103825260148152602001807f5072697a65206e6f74207472616e73666572656400000000000000000000000081525060200191505060405180910390fd5b50611ac1565b6000816020015190508073ffffffffffffffffffffffffffffffffffffffff1663a9059cbb3384606001516040518363ffffffff167c0100000000000000000000000000000000000000000000000000000000028152600401808373ffffffffffffffffffffffffffffffffffffffff1673ffffffffffffffffffffffffffffffffffffffff16815260200182815260200192505050602060405180830381600087803b158015611a8357600080fd5b505af1158015611a97573d6000803e3d6000fd5b505050506040513d6020811015611aad57600080fd5b810190808051906020019092919050505050505b60008090505b8160c0015151811015611c125760008260c0015182815181101515611ae857fe5b90602001906020020151905060008190508073ffffffffffffffffffffffffffffffffffffffff166342842e0e338660a001518887815181101515611b2957fe5b906020019060200201516040518463ffffffff167c0100000000000000000000000000000000000000000000000000000000028152600401808473ffffffffffffffffffffffffffffffffffffffff1673ffffffffffffffffffffffffffffffffffffffff1681526020018373ffffffffffffffffffffffffffffffffffffffff1673ffffffffffffffffffffffffffffffffffffffff1681526020018281526020019350505050600060405180830381600087803b158015611beb57600080fd5b505af1158015611bff573d6000803e3d6000fd5b5050505050508080600101915050611ac7565b506000600360008360000151815260200190815260200160002060006101000a81548160ff021916908315150217905550505050565b600181815481101515611c5757fe5b906000526020600020016000915090505481565b6003600082815260200190815260200160002060009054906101000a900460ff161515611d26576040517f08c379a00000000000000000000000000000000000000000000000000000000081526004018080602001828103825260218152602001807f71756573742069732063616e636c6564206f7220646f65736e2774206578697381526020017f740000000000000000000000000000000000000000000000000000000000000081525060400191505060405180910390fd5b611d2e61219f565b6002600083815260200190815260200160002060e06040519081016040529081600082015481526020016001820160009054906101000a900473ffffffffffffffffffffffffffffffffffffffff1673ffffffffffffffffffffffffffffffffffffffff1673ffffffffffffffffffffffffffffffffffffffff16815260200160028201548152602001600382015481526020016004820160009054906101000a900460ff161515151581526020016004820160019054906101000a900473ffffffffffffffffffffffffffffffffffffffff1673ffffffffffffffffffffffffffffffffffffffff1673ffffffffffffffffffffffffffffffffffffffff16815260200160058201805480602002602001604051908101604052809291908181526020018280548015611eb757602002820191906000526020600020905b8160009054906101000a900473ffffffffffffffffffffffffffffffffffffffff1673ffffffffffffffffffffffffffffffffffffffff1681526020019060010190808311611e6d575b50505050508152505090503373ffffffffffffffffffffffffffffffffffffffff168160a0015173ffffffffffffffffffffffffffffffffffffffff16141515611f69576040517f08c379a000000000000000000000000000000000000000000000000000000000815260040180806020018281038252601e8152602001807f63616e742063616e63656c207175657374206966206e6f74206f776e6572000081525060200191505060405180910390fd5b806080015115612079576000816020015190508073ffffffffffffffffffffffffffffffffffffffff166323b872dd308460a0015185604001516040518463ffffffff167c0100000000000000000000000000000000000000000000000000000000028152600401808473ffffffffffffffffffffffffffffffffffffffff1673ffffffffffffffffffffffffffffffffffffffff1681526020018373ffffffffffffffffffffffffffffffffffffffff1673ffffffffffffffffffffffffffffffffffffffff1681526020018281526020019350505050600060405180830381600087803b15801561205b57600080fd5b505af115801561206f573d6000803e3d6000fd5b505050505061216b565b6000816020015190508073ffffffffffffffffffffffffffffffffffffffff1663a9059cbb8360a0015184606001516040518363ffffffff167c0100000000000000000000000000000000000000000000000000000000028152600401808373ffffffffffffffffffffffffffffffffffffffff1673ffffffffffffffffffffffffffffffffffffffff16815260200182815260200192505050602060405180830381600087803b15801561212d57600080fd5b505af1158015612141573d6000803e3d6000fd5b505050506040513d602081101561215757600080fd5b810190808051906020019092919050505050505b6000600360008360000151815260200190815260200160002060006101000a81548160ff0219169083151502179055505050565b60e06040519081016040528060008152602001600073ffffffffffffffffffffffffffffffffffffffff1681526020016000815260200160008152602001600015158152602001600073ffffffffffffffffffffffffffffffffffffffff168152602001606081525090565b828054828255906000526020600020908101928215612284579160200282015b828111156122835782518260006101000a81548173ffffffffffffffffffffffffffffffffffffffff021916908373ffffffffffffffffffffffffffffffffffffffff1602179055509160200191906001019061222b565b5b5090506122919190612295565b5090565b6122d591905b808211156122d157600081816101000a81549073ffffffffffffffffffffffffffffffffffffffff02191690555060010161229b565b5090565b9056fea165627a7a723058207d84eafbbee2ab1a53c9468eeadb7770c32f4b81874d75138f7c25918fcb44280029",
  "source": "pragma solidity >=0.4.21 <0.6.0;\n\n/**\n\n  Quest Manager for quest platform on Ethereum. A quest can be \n  created by defining a set of required tokens, and by locking up \n  a prize. \n\n  A prize can be EITHER an ERC721 or an amount of ERC20 tokens. \n\n  A required token MUST be an ERC721. \n\n  To \"complete\" a quest a user must first give this contract \n  'transfer' rights \n\n */\nimport \"openzeppelin-solidity/contracts/token/ERC20/ERC20.sol\";\nimport \"openzeppelin-solidity/contracts/token/ERC721/ERC721.sol\";\n\ncontract QuestManager {\n\n  event QuestCreated(uint indexed _questId, address indexed _creator);\n  event QuestCompleted(uint indexed _questId, address indexed _completer);\n  event toggleQuestOpem(uint indexed _questId, bool _open);\n\n  uint public questId = 0;\n  uint256[] public ids;\n\n  struct Quest {\n    uint id; //unique id for quest \n    address prizeTokenAddress; //address for the prize token\n    uint prizeTokenId; // id if prize is ERC721\n    uint prizeTokenAmount; // amount of prize tokens if prize is ERC20\n    bool prizeIsNFT; // label the type of prize\n    address creator; // creator of the quest \n    address[] requirementsList; // list of token to acquire to complete quest\n  }\n\n  mapping  (uint => Quest) public QUESTS; // all quests\n  mapping (uint => bool) questExists; //keep track of open/non-canceled quests\n\n  constructor() public {}\n\n\n  function getId() public view returns(uint){\n    return questId;\n  }\n\n  function createQuest (\n    address _prizeTokenAddress, \n    uint _prizeTokenId,  \n    uint _prizeTokenAmount, \n    bool _prizeIsNFT,\n    address[] memory _requirementsList\n    )  \n    public returns(uint){\n       \n    if (_prizeIsNFT) {\n\n      //check that the amount is 1 (no support for multiple nft prizes)\n      require(_prizeTokenAmount == 1, \"prize amount for NFT must be 1\");\n\n      ERC721 prizeToken = ERC721(_prizeTokenAddress);\n\n      //check that the quest maker owns the NFT and has given us access \n      require(prizeToken.ownerOf(_prizeTokenId) == msg.sender, \"quest creator does not own prize\");\n      require(prizeToken.getApproved(_prizeTokenId) == address(this), \"creator has not given access to prize\");\n      \n      // transfer prize to escrow \n      prizeToken.transferFrom(msg.sender, address(this), _prizeTokenId);\n    \n    } else {\n\n      //check that the prize amount is valid\n      require(_prizeTokenAmount > 0, \"prize amount must be greater than 0\");\n\n      //check that they have a high enough balance\n      ERC20 prizeToken = ERC20(_prizeTokenAddress);\n      require(prizeToken.balanceOf(msg.sender) >= _prizeTokenAmount, \"quest creator does not own enough of prize token\");\n\n      //get the allowance for our contract and make sure its high enough \n      uint256 allowance = prizeToken.allowance(msg.sender, address(this));\n      require(allowance >= _prizeTokenAmount, \"creator has not allowed us enough tokens\");\n\n      // transfer prize to escrow\n      prizeToken.transferFrom(msg.sender, address(this), _prizeTokenAmount);\n      \n    }\n\n    questId++; \n\n    //create the new quest\n    Quest memory newQuest = Quest({\n      id : questId,\n      prizeTokenAddress : _prizeTokenAddress,\n      prizeTokenId : _prizeTokenId,\n      prizeTokenAmount : _prizeTokenAmount,\n      prizeIsNFT : _prizeIsNFT,\n      creator : msg.sender,\n      requirementsList : _requirementsList\n    });\n\n    QUESTS[newQuest.id] = newQuest; // add to the global quest mapping\n    questExists[newQuest.id] = true; // mark that this quest is open\n    ids.push(newQuest.id); // add to global list of ids\n\n    emit QuestCreated(newQuest.id, newQuest.creator);\n  }\n\n  /**\n    Creator have the otpion to cancel a quest and regain ownership \n    of the prize that is held in escrow. \n   */\n  function cancelQuest(uint _questId) public{\n    \n    //check that the quest is open \n    require(questExists[_questId], \"quest is cancled or doesn't exist\"); \n    \n    Quest memory currentQuest = QUESTS[_questId]; \n    require(currentQuest.creator == msg.sender, \"cant cancel quest if not owner\");\n\n\n    if(currentQuest.prizeIsNFT){\n      //give token back to creator \n      ERC721 prizeToken = ERC721(currentQuest.prizeTokenAddress);\n      prizeToken.transferFrom(address(this), currentQuest.creator, currentQuest.prizeTokenId);\n    } else {\n      //give tokens back to owner\n      ERC20 prizeToken = ERC20(currentQuest.prizeTokenAddress);\n      prizeToken.transfer(currentQuest.creator, currentQuest.prizeTokenAmount);\n    }\n\n    //mark the quest as closed\n    questExists[currentQuest.id] = false;\n  }\n\n  function checkRequiremnetLockup(address _tokenAddress) public returns (uint) {\n    ERC721 req = ERC721(_tokenAddress);\n    uint balance = req.balanceOf(msg.sender);\n    return balance;\n  }\n\n  function completeQuest(uint _questId, uint[] memory _submittedTokenIds) public {\n    \n    //check that the quest is open \n    require(questExists[_questId], \"quest does no exist\");\n\n    Quest memory quest = QUESTS[_questId];\n\n    //check that the length of submitted tokens is correct \n    require(_submittedTokenIds.length == quest.requirementsList.length, \"amount of submitted tokens does not match lenght of requirmenets\");\n    \n    //now check they have submitted transfer rights of all requirements to us\n    for (uint i = 0; i<quest.requirementsList.length; i++) {\n\n      //get the NFT that is required\n      address requiredTokenAddress = quest.requirementsList[i];\n      ERC721 requiredToken = ERC721(requiredTokenAddress);\n\n      //check that the submitter actual owns the NFT they are trying to submit\n      require(requiredToken.ownerOf(_submittedTokenIds[i]) == msg.sender, \"submitter doesn't own requirement\");\n\n      //check that the user has given transfer rights to us\n      require(requiredToken.getApproved(_submittedTokenIds[i]) == address(this), \"user has not given us transfer rights\");\n\n    }\n\n    //if you got this far the submitter owns all NFT requirements and has given us transfer rights\n\n    // swap the prize to the submitter \n    if (quest.prizeIsNFT){\n      ERC721 prizeToken = ERC721(quest.prizeTokenAddress);\n\n      //give the prize NFT to the submitter\n      prizeToken.transferFrom(address(this), msg.sender, quest.prizeTokenId);\n\n      require(prizeToken.ownerOf(quest.prizeTokenId) == msg.sender, \"Prize not transfered\");\n    }\n    else {\n      ERC20 prizeToken = ERC20(quest.prizeTokenAddress);\n\n      //give the amount of tokens to the submitter\n      prizeToken.transfer(msg.sender, quest.prizeTokenAmount);\n    }\n    \n\n    //now swap submitted tokens to maker\n    for (uint i = 0; i<quest.requirementsList.length; i++) {\n\n      //get the NFT that is required\n      address requiredTokenAddress = quest.requirementsList[i];\n      ERC721 requiredToken = ERC721(requiredTokenAddress);\n\n      //give new ownership to the maker\n      requiredToken.safeTransferFrom(msg.sender, quest.creator, _submittedTokenIds[i]);\n    }\n\n    questExists[quest.id] = false;\n  }\n\n\n}\n\n",
  "sourcePath": "/Users/ian/workspace/questing/questing-contracts/contracts/QuestManager.sol",
  "compiler": {
    "name": "solc",
    "version": "0.5.0+commit.1d4f565a.Emscripten.clang"
  },
  "schemaVersion": "3.0.1",
  "updatedAt": "2019-02-13T03:14:07.746Z",
  "devdoc": {
    "methods": {}
  },
  "userdoc": {
    "methods": {
      "cancelQuest(uint256)": {
        "notice": "Creator have the otpion to cancel a quest and regain ownership  of the prize that is held in escrow. "
      }
    }
  }
}