{
  "contractName": "QuestManager",
  "abi": [
    {
      "constant": true,
      "inputs": [],
      "name": "questId",
      "outputs": [
        {
          "name": "",
          "type": "uint256"
        }
      ],
      "payable": false,
      "stateMutability": "view",
      "type": "function"
    },
    {
      "constant": true,
      "inputs": [
        {
          "name": "",
          "type": "uint256"
        }
      ],
      "name": "QUESTS",
      "outputs": [
        {
          "name": "id",
          "type": "uint256"
        },
        {
          "name": "openForSubmission",
          "type": "bool"
        },
        {
          "name": "prizeTokenAddress",
          "type": "address"
        },
        {
          "name": "prizeTokenId",
          "type": "uint256"
        },
        {
          "name": "prizeTokenAmount",
          "type": "uint256"
        },
        {
          "name": "prizeIsNFT",
          "type": "bool"
        },
        {
          "name": "questMaker",
          "type": "address"
        },
        {
          "name": "ipfs",
          "type": "address"
        },
        {
          "name": "open",
          "type": "bool"
        }
      ],
      "payable": false,
      "stateMutability": "view",
      "type": "function"
    },
    {
      "constant": true,
      "inputs": [
        {
          "name": "",
          "type": "uint256"
        }
      ],
      "name": "ids",
      "outputs": [
        {
          "name": "",
          "type": "uint256"
        }
      ],
      "payable": false,
      "stateMutability": "view",
      "type": "function"
    },
    {
      "inputs": [],
      "payable": false,
      "stateMutability": "nonpayable",
      "type": "constructor"
    },
    {
      "anonymous": false,
      "inputs": [
        {
          "indexed": true,
          "name": "_questId",
          "type": "uint256"
        },
        {
          "indexed": true,
          "name": "_creator",
          "type": "address"
        }
      ],
      "name": "QuestCreated",
      "type": "event"
    },
    {
      "anonymous": false,
      "inputs": [
        {
          "indexed": true,
          "name": "_questId",
          "type": "uint256"
        },
        {
          "indexed": true,
          "name": "_completer",
          "type": "address"
        }
      ],
      "name": "QuestCompleted",
      "type": "event"
    },
    {
      "anonymous": false,
      "inputs": [
        {
          "indexed": true,
          "name": "_questId",
          "type": "uint256"
        },
        {
          "indexed": false,
          "name": "_open",
          "type": "bool"
        }
      ],
      "name": "toggleQuestOpem",
      "type": "event"
    },
    {
      "constant": false,
      "inputs": [
        {
          "name": "_prizeTokenAddress",
          "type": "address"
        },
        {
          "name": "_prizeTokenId",
          "type": "uint256"
        },
        {
          "name": "_prizeTokenAmount",
          "type": "uint256"
        },
        {
          "name": "_prizeIsNFT",
          "type": "bool"
        },
        {
          "name": "_requirementsList",
          "type": "address[]"
        },
        {
          "name": "_IPFSdata",
          "type": "address"
        }
      ],
      "name": "createQuest",
      "outputs": [
        {
          "name": "",
          "type": "uint256"
        }
      ],
      "payable": false,
      "stateMutability": "nonpayable",
      "type": "function"
    },
    {
      "constant": true,
      "inputs": [],
      "name": "getIds",
      "outputs": [
        {
          "name": "",
          "type": "uint256[]"
        }
      ],
      "payable": false,
      "stateMutability": "view",
      "type": "function"
    },
    {
      "constant": false,
      "inputs": [
        {
          "name": "_questId",
          "type": "uint256"
        },
        {
          "name": "_submittedTokenIds",
          "type": "uint256[]"
        }
      ],
      "name": "completeQuest",
      "outputs": [],
      "payable": false,
      "stateMutability": "nonpayable",
      "type": "function"
    }
  ],
  "bytecode": "0x60806040526000805534801561001457600080fd5b50611900806100246000396000f3fe608060405260043610610078576000357c0100000000000000000000000000000000000000000000000000000000900463ffffffff1680632148fbaf1461007d5780632b105663146101b657806344a22c36146102225780634de637cc1461024d578063870de6bd14610364578063fac333ac14610433575b600080fd5b34801561008957600080fd5b506101a0600480360360c08110156100a057600080fd5b81019080803573ffffffffffffffffffffffffffffffffffffffff1690602001909291908035906020019092919080359060200190929190803515159060200190929190803590602001906401000000008111156100fd57600080fd5b82018360208201111561010f57600080fd5b8035906020019184602083028401116401000000008311171561013157600080fd5b919080806020026020016040519081016040528093929190818152602001838360200280828437600081840152601f19601f820116905080830192505050505050509192919290803573ffffffffffffffffffffffffffffffffffffffff169060200190929190505050610482565b6040518082815260200191505060405180910390f35b3480156101c257600080fd5b506101cb610811565b6040518080602001828103825283818151815260200191508051906020019060200280838360005b8381101561020e5780820151818401526020810190506101f3565b505050509050019250505060405180910390f35b34801561022e57600080fd5b50610237610869565b6040518082815260200191505060405180910390f35b34801561025957600080fd5b506102866004803603602081101561027057600080fd5b810190808035906020019092919050505061086f565b604051808a8152602001891515151581526020018873ffffffffffffffffffffffffffffffffffffffff1673ffffffffffffffffffffffffffffffffffffffff168152602001878152602001868152602001851515151581526020018473ffffffffffffffffffffffffffffffffffffffff1673ffffffffffffffffffffffffffffffffffffffff1681526020018373ffffffffffffffffffffffffffffffffffffffff1673ffffffffffffffffffffffffffffffffffffffff16815260200182151515158152602001995050505050505050505060405180910390f35b34801561037057600080fd5b506104316004803603604081101561038757600080fd5b8101908080359060200190929190803590602001906401000000008111156103ae57600080fd5b8201836020820111156103c057600080fd5b803590602001918460208302840111640100000000831117156103e257600080fd5b919080806020026020016040519081016040528093929190818152602001838360200280828437600081840152601f19601f820116905080830192505050505050509192919290505050610944565b005b34801561043f57600080fd5b5061046c6004803603602081101561045657600080fd5b81019080803590602001909291905050506111c8565b6040518082815260200191505060405180910390f35b60008085111515610521576040517f08c379a00000000000000000000000000000000000000000000000000000000081526004018080602001828103825260238152602001807f7072697a6520616d6f756e74206d75737420626520677265617465722074686181526020017f6e2030000000000000000000000000000000000000000000000000000000000081525060400191505060405180910390fd5b61052961176b565b6101406040519081016040528060005481526020016001151581526020018973ffffffffffffffffffffffffffffffffffffffff16815260200188815260200187815260200186151581526020013373ffffffffffffffffffffffffffffffffffffffff1681526020018581526020018473ffffffffffffffffffffffffffffffffffffffff16815260200160011515815250905060008081548092919060010191905055508060026000836000015181526020019081526020016000206000820151816000015560208201518160010160006101000a81548160ff02191690831515021790555060408201518160010160016101000a81548173ffffffffffffffffffffffffffffffffffffffff021916908373ffffffffffffffffffffffffffffffffffffffff160217905550606082015181600201556080820151816003015560a08201518160040160006101000a81548160ff02191690831515021790555060c08201518160040160016101000a81548173ffffffffffffffffffffffffffffffffffffffff021916908373ffffffffffffffffffffffffffffffffffffffff16021790555060e08201518160050190805190602001906106ef929190611807565b506101008201518160060160006101000a81548173ffffffffffffffffffffffffffffffffffffffff021916908373ffffffffffffffffffffffffffffffffffffffff1602179055506101208201518160060160146101000a81548160ff0219169083151502179055509050506001600360008360000151815260200190815260200160002060006101000a81548160ff021916908315150217905550600160005490806001815401808255809150509060018203906000526020600020016000909192909190915055508060c0015173ffffffffffffffffffffffffffffffffffffffff1681600001517f265711dffb2100716e957f1a6a8f230bd41e3c50d54f861eda7ba55f1ccc3cc260405160405180910390a3509695505050505050565b6060600180548060200260200160405190810160405280929190818152602001828054801561085f57602002820191906000526020600020905b81548152602001906001019080831161084b575b5050505050905090565b60005481565b60026020528060005260406000206000915090508060000154908060010160009054906101000a900460ff16908060010160019054906101000a900473ffffffffffffffffffffffffffffffffffffffff16908060020154908060030154908060040160009054906101000a900460ff16908060040160019054906101000a900473ffffffffffffffffffffffffffffffffffffffff16908060060160009054906101000a900473ffffffffffffffffffffffffffffffffffffffff16908060060160149054906101000a900460ff16905089565b6003600083815260200190815260200160002060009054906101000a900460ff16151561097057600080fd5b6002600083815260200190815260200160002060060160149054906101000a900460ff16151561099f57600080fd5b6109a8826111eb565b15156109b357600080fd5b6109bb61176b565b600260008481526020019081526020016000206101406040519081016040529081600082015481526020016001820160009054906101000a900460ff161515151581526020016001820160019054906101000a900473ffffffffffffffffffffffffffffffffffffffff1673ffffffffffffffffffffffffffffffffffffffff1673ffffffffffffffffffffffffffffffffffffffff16815260200160028201548152602001600382015481526020016004820160009054906101000a900460ff161515151581526020016004820160019054906101000a900473ffffffffffffffffffffffffffffffffffffffff1673ffffffffffffffffffffffffffffffffffffffff1673ffffffffffffffffffffffffffffffffffffffff16815260200160058201805480602002602001604051908101604052809291908181526020018280548015610b6057602002820191906000526020600020905b8160009054906101000a900473ffffffffffffffffffffffffffffffffffffffff1673ffffffffffffffffffffffffffffffffffffffff1681526020019060010190808311610b16575b505050505081526020016006820160009054906101000a900473ffffffffffffffffffffffffffffffffffffffff1673ffffffffffffffffffffffffffffffffffffffff1673ffffffffffffffffffffffffffffffffffffffff1681526020016006820160149054906101000a900460ff161515151581525050905060008090505b8160e0015151811015610e135760008260e0015182815181101515610c0357fe5b90602001906020020151905060008190503373ffffffffffffffffffffffffffffffffffffffff168173ffffffffffffffffffffffffffffffffffffffff16636352211e8786815181101515610c5557fe5b906020019060200201516040518263ffffffff167c01000000000000000000000000000000000000000000000000000000000281526004018082815260200191505060206040518083038186803b158015610caf57600080fd5b505afa158015610cc3573d6000803e3d6000fd5b505050506040513d6020811015610cd957600080fd5b810190808051906020019092919050505073ffffffffffffffffffffffffffffffffffffffff16141515610d0c57600080fd5b3073ffffffffffffffffffffffffffffffffffffffff168173ffffffffffffffffffffffffffffffffffffffff1663081812fc8786815181101515610d4d57fe5b906020019060200201516040518263ffffffff167c01000000000000000000000000000000000000000000000000000000000281526004018082815260200191505060206040518083038186803b158015610da757600080fd5b505afa158015610dbb573d6000803e3d6000fd5b505050506040513d6020811015610dd157600080fd5b810190808051906020019092919050505073ffffffffffffffffffffffffffffffffffffffff16141515610e0457600080fd5b50508080600101915050610be2565b508060a0015115610f20576000816040015190508073ffffffffffffffffffffffffffffffffffffffff166342842e0e303385606001516040518463ffffffff167c0100000000000000000000000000000000000000000000000000000000028152600401808473ffffffffffffffffffffffffffffffffffffffff1673ffffffffffffffffffffffffffffffffffffffff1681526020018373ffffffffffffffffffffffffffffffffffffffff1673ffffffffffffffffffffffffffffffffffffffff1681526020018281526020019350505050600060405180830381600087803b158015610f0257600080fd5b505af1158015610f16573d6000803e3d6000fd5b505050505061100e565b6000816040015190508073ffffffffffffffffffffffffffffffffffffffff1663a9059cbb3384608001516040518363ffffffff167c0100000000000000000000000000000000000000000000000000000000028152600401808373ffffffffffffffffffffffffffffffffffffffff1673ffffffffffffffffffffffffffffffffffffffff16815260200182815260200192505050602060405180830381600087803b158015610fd057600080fd5b505af1158015610fe4573d6000803e3d6000fd5b505050506040513d6020811015610ffa57600080fd5b810190808051906020019092919050505050505b60008090505b8160e001515181101561115f5760008260e001518281518110151561103557fe5b90602001906020020151905060008190508073ffffffffffffffffffffffffffffffffffffffff166342842e0e338660c00151888781518110151561107657fe5b906020019060200201516040518463ffffffff167c0100000000000000000000000000000000000000000000000000000000028152600401808473ffffffffffffffffffffffffffffffffffffffff1673ffffffffffffffffffffffffffffffffffffffff1681526020018373ffffffffffffffffffffffffffffffffffffffff1673ffffffffffffffffffffffffffffffffffffffff1681526020018281526020019350505050600060405180830381600087803b15801561113857600080fd5b505af115801561114c573d6000803e3d6000fd5b5050505050508080600101915050611014565b506000600260008360000151815260200190815260200160002060060160146101000a81548160ff0219169083151502179055506000600360008360000151815260200190815260200160002060006101000a81548160ff021916908315150217905550505050565b6001818154811015156111d757fe5b906000526020600020016000915090505481565b60006003600083815260200190815260200160002060009054906101000a900460ff16151561121957600080fd5b61122161176b565b600260008481526020019081526020016000206101406040519081016040529081600082015481526020016001820160009054906101000a900460ff161515151581526020016001820160019054906101000a900473ffffffffffffffffffffffffffffffffffffffff1673ffffffffffffffffffffffffffffffffffffffff1673ffffffffffffffffffffffffffffffffffffffff16815260200160028201548152602001600382015481526020016004820160009054906101000a900460ff161515151581526020016004820160019054906101000a900473ffffffffffffffffffffffffffffffffffffffff1673ffffffffffffffffffffffffffffffffffffffff1673ffffffffffffffffffffffffffffffffffffffff168152602001600582018054806020026020016040519081016040528092919081815260200182805480156113c657602002820191906000526020600020905b8160009054906101000a900473ffffffffffffffffffffffffffffffffffffffff1673ffffffffffffffffffffffffffffffffffffffff168152602001906001019080831161137c575b505050505081526020016006820160009054906101000a900473ffffffffffffffffffffffffffffffffffffffff1673ffffffffffffffffffffffffffffffffffffffff1673ffffffffffffffffffffffffffffffffffffffff1681526020016006820160149054906101000a900460ff16151515158152505090508060a0015115611548576000816040015190503073ffffffffffffffffffffffffffffffffffffffff168173ffffffffffffffffffffffffffffffffffffffff16636352211e84606001516040518263ffffffff167c01000000000000000000000000000000000000000000000000000000000281526004018082815260200191505060206040518083038186803b1580156114dd57600080fd5b505afa1580156114f1573d6000803e3d6000fd5b505050506040513d602081101561150757600080fd5b810190808051906020019092919050505073ffffffffffffffffffffffffffffffffffffffff1614151561153a57600080fd5b600192508292505050611766565b60008160400151905060008173ffffffffffffffffffffffffffffffffffffffff1663dd62ed3e8460c00151306040518363ffffffff167c0100000000000000000000000000000000000000000000000000000000028152600401808373ffffffffffffffffffffffffffffffffffffffff1673ffffffffffffffffffffffffffffffffffffffff1681526020018273ffffffffffffffffffffffffffffffffffffffff1673ffffffffffffffffffffffffffffffffffffffff1681526020019250505060206040518083038186803b15801561162457600080fd5b505afa158015611638573d6000803e3d6000fd5b505050506040513d602081101561164e57600080fd5b810190808051906020019092919050505090508260800151811015151561167457600080fd5b82608001518273ffffffffffffffffffffffffffffffffffffffff166370a082318560c001516040518263ffffffff167c0100000000000000000000000000000000000000000000000000000000028152600401808273ffffffffffffffffffffffffffffffffffffffff1673ffffffffffffffffffffffffffffffffffffffff16815260200191505060206040518083038186803b15801561171657600080fd5b505afa15801561172a573d6000803e3d6000fd5b505050506040513d602081101561174057600080fd5b81019080805190602001909291905050501015151561175e57600080fd5b600193505050505b919050565b6101406040519081016040528060008152602001600015158152602001600073ffffffffffffffffffffffffffffffffffffffff1681526020016000815260200160008152602001600015158152602001600073ffffffffffffffffffffffffffffffffffffffff16815260200160608152602001600073ffffffffffffffffffffffffffffffffffffffff1681526020016000151581525090565b828054828255906000526020600020908101928215611880579160200282015b8281111561187f5782518260006101000a81548173ffffffffffffffffffffffffffffffffffffffff021916908373ffffffffffffffffffffffffffffffffffffffff16021790555091602001919060010190611827565b5b50905061188d9190611891565b5090565b6118d191905b808211156118cd57600081816101000a81549073ffffffffffffffffffffffffffffffffffffffff021916905550600101611897565b5090565b9056fea165627a7a723058207dbefbbb4f3af6a9451a51f84cf54a1a7453268e36fd31c9b499c457c79ee0880029",
  "source": "pragma solidity >=0.4.21 <0.6.0;\n\n/**\n\n  Quest Manager for quest platform on Ethereum. A quest can be \n  created by defining a set of required tokens, and by locking up \n  a prize. \n\n  A prize can be EITHER an ERC721 or an amount of ERC20 tokens. \n\n  A required token MUST be an ERC721. \n\n  To \"complete\" a quest a user must first give this contract \n  'transfer' rights \n\n */\nimport \"openzeppelin-solidity/contracts/token/ERC20/ERC20.sol\";\nimport \"openzeppelin-solidity/contracts/token/ERC721/ERC721.sol\";\n\ncontract QuestManager {\n\n  event QuestCreated(uint indexed _questId, address indexed _creator);\n  event QuestCompleted(uint indexed _questId, address indexed _completer);\n  event toggleQuestOpem(uint indexed _questId, bool _open);\n\n  uint public questId = 0;\n  uint256[] public ids;\n\n  struct Quest {\n    uint id;\n    bool openForSubmission; \n    address prizeTokenAddress;\n    uint prizeTokenId;\n    uint prizeTokenAmount; \n    bool prizeIsNFT;\n    address questMaker;\n    address[] requirementsList;\n    address ipfs; // ipfs address for associated data\n    bool open;// is the quest open for submissions\n  }\n\n  mapping  (uint => Quest) public QUESTS; // all quests\n  mapping (uint => bool) questExists; //store boolen for existing quests\n\n\n  \n  constructor() public {\n    // nothing here yet \n  }\n\n  function createQuest (\n    address _prizeTokenAddress, \n    uint _prizeTokenId,  \n    uint _prizeTokenAmount, \n    bool _prizeIsNFT,\n    address[] memory _requirementsList,\n    address _IPFSdata\n    )  \n    public returns(uint){\n    \n    require(_prizeTokenAmount > 0, \"prize amount must be greater than 0\");\n   \n    // if (_prizeIsNFT) {\n    //   ERC721 prizeToken = ERC721(_prizeTokenAddress);\n    //   //check that the quest maker owns the NFT\n    //   require(prizeToken.ownerOf(_prizeTokenId) == msg.sender, \"quest creator does not own prize\");\n    \n    // } else {\n    //   //check that they have a high enough balance\n    //   ERC20 prizeToken = ERC20(_prizeTokenAddress);\n    //   require(prizeToken.balanceOf(msg.sender) >= _prizeTokenAmount, \"quest creator does not own enough of prize token\");\n    // }\n\n    //create the new quest\n    Quest memory newQuest = Quest({\n      id : questId,\n      openForSubmission : true,\n      prizeTokenAddress : _prizeTokenAddress,\n      prizeTokenId : _prizeTokenId,\n      prizeTokenAmount : _prizeTokenAmount,\n      prizeIsNFT : _prizeIsNFT,\n      questMaker : msg.sender,\n      requirementsList : _requirementsList,\n      ipfs : _IPFSdata,\n      open : true\n    });\n\n    questId++; //increment the id counter\n    QUESTS[newQuest.id] = newQuest; //add to the global quest mapping\n    questExists[newQuest.id] = true;\n\n    ids.push(questId);\n\n    emit QuestCreated(newQuest.id, newQuest.questMaker);\n  }\n\n\n  //returns all ids for quests\n  function getIds() public view returns (uint256[] memory ){\n    return ids;\n  }\n\n  //we need a separate function to call to check if the 'maker'\n  //has locked up the prize after quest creation\n  //locked implies this contract has ownership over funds\n  function checkPrizeLockup(uint _questId) internal view returns (bool open) {\n\n    //check that we have a quest with this id\n    require(questExists[_questId]);\n\n    //get the current quest\n    Quest memory currentQuest = QUESTS[_questId];\n\n    //if prize is an NFT, check that we have ownership of prize\n    if (currentQuest.prizeIsNFT){\n      ERC721 prizeToken = ERC721(currentQuest.prizeTokenAddress);\n\n      //check that this NFT is owned by us \n      require(prizeToken.ownerOf(currentQuest.prizeTokenId) == address(this));\n\n      open = true;\n      return open;\n    }\n    //else, the prize is an ERC20 and we have enough tokens given to us by quest maker\n    else {\n\n      ERC20 prizeToken = ERC20(currentQuest.prizeTokenAddress);\n\n      //get the balance for our contract \n      uint256 allowance = prizeToken.allowance(currentQuest.questMaker ,address(this));\n\n      //check that this allowance is at least the amount for the prize \n      require(allowance >= currentQuest.prizeTokenAmount);\n\n      //require that the quest creator owns enough tokens \n      require(prizeToken.balanceOf(currentQuest.questMaker) >= currentQuest.prizeTokenAmount);\n\n      return true;\n    }\n    return false;\n  }\n\n  // function cancelOrder(uint _questId) public{\n  //   //code to transfer ownership back to the maker\n  // }\n\n  function completeQuest(uint _questId, uint[] memory _submittedTokenIds) public {\n    \n    //check if the quest with that id exists\n    require(questExists[_questId]); \n\n    //check that quest is open for submissions\n    require(QUESTS[_questId].open); \n\n    //only let users complete quests if our contract has access to the prize\n    require (checkPrizeLockup(_questId));\n\n    Quest memory quest = QUESTS[_questId];\n    \n    //now check they have submitted transfer rights of all requirements to us\n    for (uint i=0; i<quest.requirementsList.length; i++) {\n\n      //get the NFT that is required\n      address requiredTokenAddress = quest.requirementsList[i];\n      ERC721 requiredToken = ERC721(requiredTokenAddress);\n\n      //check that the submitter actual owns the NFT they are trying to submit\n      require(requiredToken.ownerOf(_submittedTokenIds[i]) == msg.sender);\n\n      //check that the user has given transfer rights to us\n      require(requiredToken.getApproved(_submittedTokenIds[i]) == address(this));\n\n    }\n\n    //if you got this far the submitter owns all NFT requirements and has given us transfer rights\n\n    // swap the prize to the submitter \n    if (quest.prizeIsNFT){\n      ERC721 prizeToken = ERC721(quest.prizeTokenAddress);\n\n      //give the prize NFT to the submitter\n      prizeToken.safeTransferFrom(address(this), msg.sender, quest.prizeTokenId);\n    }\n    else {\n      ERC20 prizeToken = ERC20(quest.prizeTokenAddress);\n\n      //give the amount of tokens to the submitter\n      prizeToken.transfer(msg.sender, quest.prizeTokenAmount);\n    }\n\n    //now swap submitted tokens to maker\n    for (uint i=0; i<quest.requirementsList.length; i++) {\n\n      //get the NFT that is required\n      address requiredTokenAddress = quest.requirementsList[i];\n      ERC721 requiredToken = ERC721(requiredTokenAddress);\n\n      //give new ownership to the maker\n      requiredToken.safeTransferFrom(msg.sender, quest.questMaker, _submittedTokenIds[i]);\n    }\n\n    //now close the quest and remove it from set of existing quests\n    QUESTS[quest.id].open = false;\n    questExists[quest.id] = false;\n\n  }\n\n\n}\n\n",
  "sourcePath": "/Users/ian/workspace/questing/questing-contracts/contracts/QuestManager.sol",
  "compiler": {
    "name": "solc",
    "version": "0.5.0+commit.1d4f565a.Emscripten.clang"
  },
  "schemaVersion": "3.0.1",
  "updatedAt": "2019-01-25T01:08:20.912Z",
  "devdoc": {
    "methods": {}
  },
  "userdoc": {
    "methods": {}
  }
}